:020000020000FC
:100000000C9403121895189518951895189518952D
:100010001895189518951895189518951895189578
:100020001895189518951895189518951895189568
:100030001895189518951895189518950C94A6026A
:1000400018951895189518950C94060318951895F9
:100050001895189518951895189518951895189538
:100060001895189518951895189518951895189528
:10007000189518950C94C603189518951895189509
:10008000189518950C946603189518950100AB0007
:10009000080027012E0137013E0143014D015401A3
:1000A0005B010000AB000A00A400730175017B0135
:1000B000810187018D0193019A01A101219700EE31
:1000C000C0D10E94A60900E911E0C2D110E0BBD165
:1000D000B2D100E511E0A4D1A8D10CE015E0A5D182
:1000E0002A932A9360E04BE556E002E810E09FD1A6
:1000F00020E431E000E08FD10E94D10900E010E05F
:10010000219608950E94DB1421970E94A3040E9467
:100110006B110E9426040E94180948D1ACE3B8E094
:1001200031D10D931C9311972AD10483158327D1C4
:10013000028313830E94830907E0009398010E94C1
:10014000370485EC91E020C00FEF701621F0FC0120
:10015000072D0395028300914608013971F400913F
:100160004708063611F40E943507009147080939FF
:1001700021F40E9477080E94980700E0009342084B
:1001800012E001E00E948604AE0120E030E00D9113
:100190001C911197B7D1F9F6009146080F70109194
:1001A00099010117C1F600914708202F2F70409147
:1001B000970150E0102F107F105BE1F1105109F40E
:1001C00080C0105159F0105161F0105269F0105177
:1001D00099F0105119F1105241F1BDCF20939701C0
:1001E000BACF20939801B7CF20934308FD01028135
:1001F00013810E949F0FAFCF0C3131F40E940E0784
:100200004424B1D040F4FDCF083129F40E941207F4
:100210004424A9D0F0F30AE0B0D09DCF20939901F7
:100220000E94170700919901F7CF2A95022F0E948B
:100230001A0791CF0DE9402E01E0440E051F502E04
:10024000022FECE8F0E0FBBFF0E00C948314F20125
:1002500000810F3148F00A9500837DCFF2010081C3
:100260000E3F10F00A95008300810395F5CF70D002
:100270008DD00081002309F46ECFEDCF69D092D0EC
:1002800009F469CFF2CF64D081D00081002309F452
:1002900062CF01810A9501835ECF5AD083D009F4E1
:1002A0005ACF01810395F7CF53D07CD009F453CFB7
:1002B00002810A954FCF4CD075D009F44CCF028102
:1002C00048CF6CD038EC432E31E0400E311F532E16
:1002D0006090C6017090C701022FE2EAF0E0FBBF18
:1002E000F0E00C948314F201C4CFF20100810A35CE
:1002F00008F031CFBACFF2010181002309F42BCFEE
:10030000C9CFF20101810A3508F025CFCBCFF20128
:100310000281002309F41FCFCCCFF20102810A35FC
:1003200008F019CF16CF662009F415CFFC016A94A6
:10033000618211CF0FEF601609F40DCFFC016394B9
:10034000F7CF772009F407CFFC017A94728203CFAC
:1003500000919801083030F00F3008F00EE01EE0F8
:10036000101B012F0895FF27E42DE656FE4F04D001
:10037000439403E04016089500810C944C0402D08D
:10038000FD01089501E010E00C94F90E402F50E0BB
:1003900005D0E4E2F3E0E00FF11F089503E010E080
:1003A0000C942812F3DF00810F3F0895219708EC89
:1003B00048D041D008E834D030D00CE916E035D030
:1003C00001E02BD061E043E257E005E312E02FD0DB
:1003D0002BE431E001E042D004E617E026D002E051
:1003E0001CD062E04FEA57E00FE512E020D022E592
:1003F00031E002E033D000EF17E017D003E00DD07A
:1004000063E04BE358E00EE812E011D029E531E05B
:1004100003E001D075CE0C943B102A930A93089503
:1004200020E030E02A932A9308951A93F7CF0E9490
:10043000D00FAE01089503E01A930A931A931A930A
:10044000089510E005D0E9E3FEE0008311830895EC
:10045000E7E3FEE00083118300E40895DCDF0CE8AD
:10046000F0DFE9DF0CE4DCDFD8CF21970AC02223DC
:1004700019F421E0F8012083F80120812A952083D6
:100480007BDF46D0028113810E94290F009143082F
:100490000770202F30E00AE911E0020F131FF80166
:1004A0002081ECE3F8E0378133FDE1CF283718F005
:1004B000F8012A952083F80120812395E0CF219728
:1004C00017C0033018F002E0009342080E943D0676
:1004D000EAE8F1E0008111811BBD0ABD02811381B0
:1004E00019BD08BD04811581109387000093860013
:1004F0000FD00481158106D020F7ECE3F8E00395D6
:100500000683E4CF0E94290F00914208023008952B
:10051000AE0120E030E0ECE3F8E0089506C010936F
:10052000980101E010E00E9435110E945004013949
:10053000C1F70E945004102F1F70007F005D19F05A
:10054000005169F3EECF10939701EBCF0A921A9204
:100550002A923A924A925A926A927A928A929A92FB
:10056000AA92BA92CA92DA92EA92FA920A931A93E9
:100570002A933A934A935A936A937A938A939A93D3
:10058000AA93BA93EA93FA930BB70A930FB700684A
:100590000A930EB70A930DB70A93009121090395A8
:1005A00000932109013031F4E091F908F091FA0843
:1005B000C193D1930E94B0040E94B20909910DBF6A
:1005C00009910EBF09910F770FBF09910BBFF991E8
:1005D000E991B991A99199918991799169915991EB
:1005E00049913991299119910991F990E990D990FE
:1005F000C990B990A99099908990799069905990F3
:100600004990399029901990099018950A921A9258
:100610002A923A924A925A926A927A928A929A923A
:10062000AA92BA92CA92DA92EA92FA920A931A9328
:100630002A933A934A935A936A937A938A939A9312
:10064000AA93BA93EA93FA930BB70A930FB7006889
:100650000A930EB70A930DB70A93009121090395E7
:1006600000932109013031F4E091F908F091FA0882
:10067000C193D1930E9457040E94B20909910DBF02
:1006800009910EBF09910F770FBF09910BBFF99127
:10069000E991B991A991999189917991699159912A
:1006A00049913991299119910991F990E990D9903D
:1006B000C990B990A9909990899079906990599032
:1006C0004990399029901990099018950A921A9298
:1006D0002A923A924A925A926A927A928A929A927A
:1006E000AA92BA92CA92DA92EA92FA920A931A9368
:1006F0002A933A934A935A936A937A938A939A9352
:10070000AA93BA93EA93FA930BB70A930FB70068C8
:100710000A930EB70A930DB70A9300912109039526
:1007200000932109013031F4E091F908F091FA08C1
:10073000C193D1930E94B4110E94B20909910DBFD7
:1007400009910EBF09910F770FBF09910BBFF99166
:10075000E991B991A9919991899179916991599169
:1007600049913991299119910991F990E990D9907C
:10077000C990B990A9909990899079906990599071
:100780004990399029901990099018950A921A92D7
:100790002A923A924A925A926A927A928A929A92B9
:1007A000AA92BA92CA92DA92EA92FA920A931A93A7
:1007B0002A933A934A935A936A937A938A939A9391
:1007C000AA93BA93EA93FA930BB70A930FB7006808
:1007D0000A930EB70A930DB70A9300912109039566
:1007E00000932109013031F4E091F908F091FA0801
:1007F000C193D1930E94F5060E94B20909910DBFE1
:1008000009910EBF09910F770FBF09910BBFF991A5
:10081000E991B991A99199918991799169915991A8
:1008200049913991299119910991F990E990D990BB
:10083000C990B990A99099908990799069905990B0
:100840004990399029901990099018951098119A0B
:10085000189A00E00AB90BB906E00093950003E38B
:1008600009B900E00093900008E90AB908958A9850
:100870008B9A929A00E000939A0000939B0006E006
:1008800000939D0003E30093990000E0009398001B
:1008900008E900939A0008955D9BFECF0CB9089576
:1008A00000919B0007FFFCCF00919C0008950CB1C4
:1008B00010914408112341F40A3A19F511E01093FC
:1008C000440810E0109349082091490830E0E4E41E
:1008D000F8E0E20FF31F0183E4E4F8E015811395DB
:1008E00015830C3F71F4308300914908043031F4D2
:1008F000ECE3F8E0008111810E949F0F00E000937B
:10090000490808951C93A62FB32F08950CD003D047
:100910001C911027F7CFA081B1811C91102B1C9343
:10092000A685B78508953B2F6A2F22E0029F02D04B
:10093000412F05C0E0E6F1E0E00DF11D089501E072
:1009400010E00C9432120EE003BF00E002BF0BE98E
:1009500001BF06B7026006BF07B7026007BF089570
:100960000C94EA090BD05BD00080F90159D04BD030
:10097000D0F308E0FB0128D0E8F30895B80100E0C7
:1009800010E00895FBDFF9014BD0008048D03BD048
:10099000D0F300E0FA0141D0208736D0D8F3089593
:1009A0000801EDDF35D02080F90134D0D8F308E01C
:1009B000F0010AD0E8F300E1F0012FD07097208316
:1009C00003950831C8F308952BD02081FA0128D06F
:1009D000389720830395003108950801D0DFF9018D
:1009E0001FD02080F00116D0D0F300E0FA0118D01B
:1009F0000ED0208709D0D0F300E011D008D0208B92
:100A000003D0D8F30895008203950830089520811B
:100A1000F00106C005D02082F7CF02D02081FB0173
:100A2000E00FF11F0895090120E030E06ED0208032
:100A300063D031D0D8F328E068D0008061D03897F7
:100A4000008223952031C0F320E15FD04081FB017B
:100A50005DD07097408323952831B8F328E1488111
:100A600059814CD07897608323952032D0F320E2CF
:100A70004A815B8143D0B097608323952832D0F3BD
:100A800028E24C815D813AD0B8976083239520336A
:100A9000D0F32696089520822395283008950901E1
:100AA00020E030E029D0208030D0F5DFD8F320E0FE
:100AB00027D000802AD00086EFDFD0F320E0FB01B2
:100AC00025D0408122D0408BE7DFC8F320E0488169
:100AD000598118D0608FE0DFE0F320E04A815B812C
:100AE00011D060A3D9DFE0F320E04C815D810AD012
:100AF00060A7D2DFE0F3CDCFF00108C006D060815F
:100B0000FA0104C0FA0102D06081F801E20FF31F7C
:100B100008950E94D914412F4901112329F400E0BE
:100B200010E020E030E069C08AD086D0042F87D062
:100B30008FD0A1D077D09DD07FD08401990C990817
:100B4000292D392D0E94A71249EF5FE069E470E476
:100B500064D064E373E478D06FD04AEF64D00E942D
:100B6000721418F449EF70EC07C040E050E060E008
:100B700070E04DD020F456D00E9406135DD04AEFAD
:100B80005FE069EC7FE38201930141D0E0F4A201D0
:100B9000B3016FD0A201B30140D060EC70E454D037
:100BA000C801D9014AEF5FE069E441D0C0F44CEFDD
:100BB0005BEC66E92CD098F449EF5FE069E470ECF7
:100BC0000E94061314C069E470E421D058F71AD0CB
:100BD00029E416D041D04AD08C019D011AD04CEFA7
:100BE0005BEC66E924D038F40DD029EC09D034D080
:100BF000AC01BD010ED08C019D01EAE00C94EA1419
:100C000030E424C0A201B30109EF1FE008950C9461
:100C10005A141CD0C801D90108950E94671340E0FE
:100C200050E0089549EF5FE069EC70E4089570E4E6
:100C3000820193010C94721428013901089510E087
:100C400020E030E00C94B21216D002D00C944A137B
:100C50000DD0820193010895C801D90107D009D0B0
:100C6000AC01BD01DADF60EC70E405C0A801B90198
:100C700008950C9467130C94E0130E94D4140AE8AE
:100C8000402E01E0502E60909701662051F430D143
:100C900022E0F201E80FF91F85D07BD008F05DC09B
:100CA000F8CF772428EC31E003E010E0A3016ED008
:100CB0006901C00ED11EE090960190919801973085
:100CC00040F19F3018F00EE00093980180E0D201CF
:100CD000A80FB71DFD0166D09801EEE4F3E0E80F20
:100CE000F51F409198010DEF1FEF50D094D0408137
:100CF0000AE01CD1201B310B3A932A93F601E80F2E
:100D0000F71D008110E055D00150104041D028F56A
:100D1000DECF80E010E0D201A80FB11FFD014089B5
:100D200050E005E033D09801492FF7D0E4E2F3E03A
:100D300072D010E0E80FF11F40810AE027D0200FA9
:100D4000311F3A932A9310E0F601E80FF11F00815A
:100D500030D001551B4F1CD0E8F202E0809F400CC0
:100D6000511CF20100811181083512072CF408E5AD
:100D700012E00083118307C0013629E019401CF0FE
:100D800000E600832183EFE00C94E5140C94281214
:100D900022E0829FF201E00DF11D00831183839513
:100DA00083300895408950E005E0C0D000551B4FC6
:100DB000089546DF48015901FD0123AD30E0F301FC
:100DC000A3D013890E2DA5DEA401B50152DF4EDF9D
:100DD00000E010E020E231E44CDF0E94B412980100
:100DE00009911991020F131F08950091970110E0C6
:100DF000EAE8F1E010D04389442339F000919601EC
:100E00000E5F0E941A1200929601E0E4F8E0008161
:100E100011810C949F0FE00FF11F089513E061D131
:100E20000C943A0961D0FCDF5BD10C94520911E0BB
:100E300042D1F6CF9A938A932597102E02B3047F5E
:100E400002BBECE3F3E08E0145E050E00E94C814E1
:100E50001B824ED0FE01E80FF91F008128D185309A
:100E6000C8F325968991999108950E94DF1480D145
:100E70000DE911E08DD13CD03ED015D1E8F334D04E
:100E800080D145EC51E079D180E03CD003AD09D16F
:100E9000E0F380E050E03BD0A00FB11F0C912DD0CB
:100EA000018315D1C0F380E028D00FD1E8F34DD1F4
:100EB0000BE418E092D180E050E02DD0A4E2B3E042
:100EC000A00FB11F2CD0B91F0C911CD003A3839588
:100ED000883198F380E0FED0F0F330D10DEA11E0D4
:100EE00067D1E4E00C94F01413E040E052E0FBC062
:100EF00080E090E00895FC0107C0E82FF0E0E65B99
:100F0000F74F0895E82FF0E0E657FE4F0895A8EC5C
:100F1000B1E005D0B51F06D0402F03E007C002D0D6
:100F2000A00D089543E0082F0C941A1210E02ECF64
:100F30000E94DF142AD1BFD078DF00919901C1D07F
:100F400024D14AE458E02DEF31E000E26EDF009159
:100F50004A08B7D0C5D069DFCBDFCDDF0089A1D08B
:100F6000E0F3B0D063D14BE858E028E232E000E48F
:100F70005CDF5CD143E958E022E332E008E455DF6E
:100F8000D9D043E958E02BE838E00DE911E00E94A0
:100F9000C20400E0E02FB7DF2389E02FAFDF21ABF1
:100FA00003950031B8F380E0ADDF7DD0E8F38AD05F
:100FB00013E045EC51E02FE332E000E56ED04BE961
:100FC00058E024EA32E000E668D043EA58E02EEA2E
:100FD00032E008E662D04BEA58E028EB32E000E766
:100FE0005CD043EB58E022EC32E008E756D04BEB04
:100FF00058E02CEC32E000E850D043EC58E02BEC09
:1010000038E008E812DF03EC18E0AFD00BEB18E093
:10101000ACD003EB18E0A9D06BEA78E043EA58E0E3
:101020002BE938E00BE418E00E944F0580E050E027
:10103000F0E0E82FE65BF74F918169DFFD01EBDE21
:10104000908345D0A8F354DFFC01E65BF74F3DD019
:10105000D8F338D018E045ED58E026E033E000E959
:101060001CD04DED58E020E133E008E916D045EE04
:1010700058E02AE133E000EAD8DE65EE78E04DED95
:1010800058E025ED38E00DEA11E00E94ED0480E023
:1010900021D0F0F317D04ED024CF0E94520918E08F
:1010A000089505D07DCE038902D0803108950E9435
:1010B0004C048395089549E951E029EF31E000E1BE
:1010C000089501D00AE00C944C040181FCDF839563
:1010D00080330895E82F17DF03A1E9DF88310895F1
:1010E00051D04AE951E023E032E000E308954DD0C9
:1010F00048EF51E029EF31E000E192DE46D04CEFBD
:1011000051E02DEF31E000E23CD040E052E0EBDF77
:1011100087DE10D02DD008E012E03AD013E04CE387
:1011200052E02BD012D004E412E057D007D006EDE5
:1011300012E03ED002E010E00C9435116EEF72E048
:1011400046EF52E02EEE32E008950CE912E00DD0A9
:1011500004E912E00AD00CE812E007D064E872E07B
:101160004CE752E024E732E008951A930A93089579
:1011700040E252E028E132E008952FE332E000E55A
:101180004FCE4EDED7DF13E00895D4DF11E008958F
:101190000E94B20418E048E152E028E232E000E4A4
:1011A00043D040E252E022E332E008E439DEC2CF2D
:1011B0000E94D0043BD04EEE52E026E033E000E93E
:1011C00033D046EF52E020E133E008E92DD04EEF76
:1011D00052E02AE133E000EA23CE0E94130526D034
:1011E00044E752E024EA32E000E61ED04CE752E049
:1011F0002EEA32E008E618D044E852E028EB32E06C
:1012000000E712D04CE852E022EC32E008E70CD0C4
:1012100044E952E02CEC32E000E806D04CE952E020
:101220002CEC32E008E8FCCD0E943A0983DF37CF8E
:1012300004E000937D0000E21EE417BD06BD10939C
:1012400081000093800000E00093890000938800F3
:1012500007B3006607BB0EEF0FBD0AE10EBD139A80
:101260000EEF00938B000AE100938A000CEF02BBA3
:1012700001BB08950E94DF14D901212F3FD0EA2F2E
:10128000F32F018330E006C0FA0135D0008132D05F
:101290000283019682179307BCF32E5F28D0E4E007
:1012A0000C94F0140E94DB14D9013A01412E26D08F
:1012B000F901018322E00A2F132F0E94731101EA22
:1012C0000C93542C5394252D12D0252D8D010E9462
:1012D0009B1106C00FD00181F3010DD00083019650
:1012E000552484159505B4F3E8E00C94EC148D01B5
:1012F0000C947311FD01E80FF91F089580E090E050
:1013000010EA1C93089511E041E453E023E433E034
:1013100000EBC8DF00914103023029F40E949807D6
:101320000FEF0C944C0411E042E453E023E433E06B
:1013300000EBA0DF0E9477080C9498070E947C0DB8
:1013400000E0089500912109002308950E94970E5E
:1013500092D1B8D103D268D1C8D1DDD10E94980E04
:101360000C94F50E15D1F4D016D089F418D0802F36
:10137000E9DF21F0FD010A9504AB39F409D029F425
:1013800031D219F038D20E943B0E082F21D0E3C091
:1013900000912209D9CF00912809013008950C94B9
:1013A000790D00912809002371F421D200932309BB
:1013B00012E0019F81D13AD27FD1008B118B04873B
:1013C00015870E947E0D0895448345834683478395
:1013D0000C947C0DDDD00E94F40EE1DF402FB8D0DC
:1013E000FD01008511852285338525D2008711876F
:1013F00022873387042FECDFCEDF09F044C0009151
:101400002A09002349F00A95F1F10A9511F401E047
:1014100001C000E000932A09FD018289938919C067
:1014200000E0018F008D03FD0FC0068DFD0110ADA2
:10143000102B10AFFC01258D048D10E0FD01E00F95
:10144000F11F01AD022B01AFFC0186859785042FAA
:10145000BFDFFC01028D0E30B1F0A1DF402FFC0197
:1014600006891789012B81F3068901501040068BEC
:10147000178B012B49F7008D077391F2008D087CC3
:10148000008F01E0CECF67C00E94DD14D801F801C3
:10149000E58110E0F0E0EE59FC4F2081822F880FAB
:1014A000880F880FFB2F020FE02FF11FE681F0E07D
:1014B000EE59FC4F0081800F02E0809FF001E35164
:1014C000F74F44885588F201168B178B4095008D95
:1014D0000423008F518F03FD0EC0068DEDD010AD9B
:1014E000102B10AFF201058DE22FF0E0E351F74F22
:1014F00011AD102B11AF9D0182014CD0F201248956
:101500003589022F032B29F082015CD0F201A28BD6
:10151000B38B082FE6E00C94EE145B2F6A2F1ED0DD
:10152000028B138B458D248D30E02BD017D023D028
:1015300015D0048D0DD0A00FB31F058D0095D99641
:101540001C9110231C9309F40ED0A62FB52F0895DB
:10155000ADEEB8E00895E4E00C94F014A9EFB8E023
:10156000ED91FC910895068D0095EDEEF8E010AD3B
:10157000102310AF0895268DF8010581022B0583F5
:101580000895F801E20FF31F2681242B2683089586
:101590000C94DF14BD01F801448D50E0F901E40F13
:1015A000F51FD8015D964C91409556815423568382
:1015B00039F4F801068D0095F90115811023158382
:1015C000DB0108957B2F0A2EF801448D568D658D21
:1015D000D901F9010081118114C030E0F801E40F54
:1015E000F31F262F209536813223368331F4252FA1
:1015F0002095F80105810223058312960D911C9117
:101600001197202F212B49F7A02DB72F089520E007
:10161000F80125830A5F1F4F22E030E0F801319383
:101620008F012A95D9F708959A938A9320EF30E095
:101630000DE219E0BBD0EDE2F9E085E499E009E0C4
:1016400010E01083818392831FE3108710E01187DD
:10165000789648960A95A1F71083118312830FE3B9
:10166000008711870DE219E0EBE2F9E000831183B6
:101670008991999108951B2F2A2F1ED000E0008791
:1016800001870287038704AB05AB04AF03AF17D014
:1016900002830383A1E2BAE00AD0179708D004833B
:1016A00005830683078303ABA22FB12F08950D9303
:1016B0000D930D930C930895EDEEF8E008950083DB
:1016C000018308959D01F8DF00E000AFDF01D996A6
:1016D00002E010E01D930A95E9F716AB17AB108BEB
:1016E000118B14871587D90108952BD005E01BE0D5
:1016F00025D00FEF0A930A936EE044EE5BE005E518
:101700001CE00E94D00FAE0126E433E00EE00E9400
:101710003B102196089515D005E21AE00FD00EEF88
:101720001FEF0CD06DE044E05BE004E61CE00E949B
:10173000D00FAE0124E533E00DE0E9CF1A930A9310
:101740000895219703E010E0F9DF1A931A9300EE51
:1017500020E030E02A932A932A93F1CF22E532E069
:1017600005EE1BE023D02EE130E001E019E01ED0B1
:10177000E5EEFBE007E21CE028E0068717873FE381
:1017800032AB30E033ABEE5BFF4F0E5B1F4F2A9561
:10179000A1F7368737870FE302AB33AB8DDF328B90
:1017A000338B05EE1BE006871787089500C006C03F
:1017B00040E0F80141938F0121503040422F432BEC
:1017C000B9F70895E5DEEBDD802FC2DEBBDD39F42D
:1017D000DFDD29F407D019F00ED00E94B30D082FD9
:1017E000F7DDB9CE04D0109123090117089528D050
:1017F00000912409089512E0019FFD0117D0FD0119
:10180000008B118BF80100A111A122A133A113D0EB
:1018100000A311A322A333A30D911D912D913C91FF
:101820000AD03C932E931E930E930895E00DF11D64
:101830000489158908950F5F1F4F2F4F3F4F08955B
:101840003B2F4A2F39DFA0AD10E0B0E0AE59BC4FBE
:101850000C91202F220F220F220FDF01A00FB11FAA
:10186000D996AC91AE591C4FB12F0C91200F27ABDC
:10187000A42FB32F089540E005C09F01F8015193B4
:101880008F014395F90151915523B9F720E0F801F3
:101890002083042F089520E001C02395F8013191A1
:1018A0008F013323D1F7022F08954DD04F5F5F4F43
:1018B0006F4F7F4F04D08CDD0E949A0EF6CF448389
:1018C00055836683778308958A9302C004E138D0F4
:1018D000009120090023D1F3EFDE048115812681D8
:1018E000378144E650E060E070E00E943C12EDEE8B
:1018F0000483158326833783012B022B032B29F4C2
:1019000000E002AB0FEF0E94D3101DD04083518343
:101910006283738340E058DD84E6CEDE18D0EDE1CB
:10192000FAE000811181228133810E943C12801BE8
:1019300080931F090E949B0E0FD00AE001D0E5CFD3
:1019400010E00C9435110E94790DEDE1FAE044812C
:1019500055816681778108951BDE289780E09E017E
:10196000082F0E947F100023F1F402E0809FD00135
:10197000AF5FB64FED91FC910E2F0F2BA1F010E051
:10198000E130F10781F04481558106811781400FD4
:10199000511F44A755A70C811D812E813F8106A7A9
:1019A00017A720AB31AB83958F30C8F22896D3CDE3
:1019B0000E94D714402E39014A015B01F0DCC8DDDA
:1019C000FD0186859785182F192B09F48DC0FC0120
:1019D00026853785FD0126873787FADCFC01608282
:1019E0007182428E00E0008F018F068B078B088981
:1019F0001989028313830C851D852E853F850683F7
:101A0000178320873187848295820A891B89028700
:101A10001387A486B58600E0078F042D06950695EA
:101A20000695048F042D0770038F448D01E010E0AC
:101A30000E943212068F438D01E00E941512058F1D
:101A400000E010E0028B038B048B058B00A301A345
:101A500002A303A300A701A702A703A704A305A34A
:101A600006A307A304A705A706A707A700AB01AB1A
:101A70000FE302AB13AB8C010E94F30E8C010E94AA
:101A8000990E8DDC12E0419EFD01E00DF11D848B6D
:101A9000958BFD0122893389FC012687378720E059
:101AA000208B218BFD0122893389122F132B19F0F2
:101AB000F901808B918BFD01828B938BFC01168D3C
:101AC000FD0120AD212B20AFFC01158D248D30E0D0
:101AD000FD01E20FF31F21AD212B21AFDC961C91FC
:101AE00013951C932BDC02C073DC02E4E4E10C943C
:101AF000E8140FB7F89408950FBF08950E94F20EEE
:101B000000912809039500932809E091FD08F091C0
:101B1000FE08C191D19109910DBF09910EBF0991A4
:101B20000F770FBF09910BBFF991E991B991A99175
:101B30009991899179916991599149913991299115
:101B400019910991F990E990D990C990B990A9900B
:101B500099908990799069905990499039902990FD
:101B60001990099018950A921A922A923A924A92DA
:101B70005A926A927A928A929A92AA92BA92CA9245
:101B8000DA92EA92FA920A931A932A933A934A9330
:101B90005A936A937A938A939A93AA93BA93EA93FD
:101BA000FA930BB70A930FB70A930EB70A930DB7C0
:101BB0000A93E091F908F091FA08C193D1930E9439
:101BC000F20E0091240900932309E091FD08F091A1
:101BD000FE08E093F908F093FA08C191D1910991B8
:101BE0000DBF09910EBF099107FD22C00FBF0991DA
:101BF0000BBFF991E991B991A99199918991799145
:101C00006991599149913991299119910991F990C5
:101C1000E990D990C990B990A990999089907990BC
:101C20006990599049903990299019900990089598
:101C30000F770FBF09910BBFF991E991B991A99164
:101C40009991899179916991599149913991299104
:101C500019910991F990E990D990C990B990A990FA
:101C600099908990799069905990499039902990EC
:101C70001990099018950E94F20E00912409009382
:101C80002309E091FD08F091FE08E093F908F09334
:101C9000FA08C191D19109910DBF09910EBF099127
:101CA00007FD22C00FBF09910BBFF991E991B991CE
:101CB000A991999189917991699159914991399114
:101CC000299119910991F990E990D990C990B99009
:101CD000A9909990899079906990599049903990FC
:101CE00029901990099008950F770FBF09910BBFA4
:101CF000F991E991B991A991999189917991699114
:101D0000599149913991299119910991F990E99045
:101D1000D990C990B990A99099908990799069903B
:101D200059904990399029901990099018950895E3
:101D300008950895089508950D01DA01E7E3FEE09E
:101D400060817181719561957040460F571F628166
:101D50007381460F571FFA010083129300E00C9322
:101D600001E00E9302E00E9303E00E9304E00E9365
:101D700005E00E9306E00E9307E00E9308E00E9345
:101D800009E00E9300E10E9301E10E9302E10E9340
:101D900003E10E9304E10E9305E10E932E933E931F
:101DA00008E10E9309E10E9300E20E9301E20E9317
:101DB00002E20E9303E20E9304E20E9305E20E9309
:101DC00006E20E9307E20E9300E30E9301E30E93F7
:101DD0000AEA0E9300E80E933197FE93EE938D017D
:101DE000D00108950895089508950895E4E00C94AD
:101DF000F0140E94DF14C80126D019F000E010E0B2
:101E000021C0C6D023D0A081B1812A2F2B2B31F045
:101E1000FD01218132811AD020833183BCD00A2F69
:101E20000B2B79F003E00C93FD018383948300E096
:101E300010E0018302830FE3008711878D010E9468
:101E4000070B8D01D3CF0091210974C0EBE2F9E0BB
:101E500008950E94DB14C8013901DA01F8010081FC
:101E6000033011F001E017C0EEDF11F002E013C003
:101E700000912209002311F00DE00DC089D0402E01
:101E8000FC0103811481012B41F0038101501040BA
:101E90000383148345D00C9331C039D0008D016089
:101EA000008F20E03AD033D0668A778A8C010E9476
:101EB0008D0A3AD06DD0402EE9EFF8E00081118113
:101EC000F801018D002319F0025019F004C000E060
:101ED00008C00EE006C09C010091F9080E94CA0AE1
:101EE0000AE00C9320E013D0208F17D000E009D037
:101EF000028B038B06D0048B058B4CD0E8E00C944E
:101F0000EC14E9EFF8E02081F181E22F0895E9EF88
:101F1000F8E00081F181E02F0895F9DF218F089525
:101F2000042D39D000E00895042D35D00C94E20B37
:101F3000FD010581002308950C910330089524D0FC
:101F400011F001E019C024D0802FF2DF21F015D06C
:101F5000082FEBDF0CC0038114810F3F2FEF120716
:101F600041F00F5F1F4F03831483082F14D000E04C
:101F700003C0082F10D002E339CF50E041E020E049
:101F800030E08D010C94440A0E94DF14D801D4CFB4
:101F90000C94790D042D0C947C0DA0D008E20895CA
:101FA0000E94D31422970883198379016A01A62E0F
:101FB0004FD019F093D00CE332C012E0A19E3CD078
:101FC00069F588D08C889D888E899F89A88DB98D68
:101FD0006C8C7D8C9301AC01BD01840135D1B301C2
:101FE000A6019701088119810E949C0E7A926A923B
:101FF0002C8D3D8D3A932A93BA93AA939A938A9300
:102000006A8D7B8DA40198010A2D0DD021F410D08A
:1020100019F473D001C021D0082F01C0BEDF229671
:10202000ECE10C94E4140E94D80C802F0023089556
:10203000009128090130089511E0412E19E0400C6B
:10204000111D512EE42DF12F20813181232B089574
:10205000A8D01091210911230895A3D020E0F20106
:10206000208321833BC0E5E2F9E0089500E0089574
:10207000042D34D0FBCF0E94DB1426D011F002E1F6
:102080001FC02ED060807180062D072929F001E045
:1020900010E06016710611F4CFD012C08C010E94BE
:1020A0004B0C003120F0042D19D001E409C09C0133
:1020B00002E3600E00E0701E83010E943B0CD8DF3B
:1020C0000C93E8E00C94EC14502EC901DA01009155
:1020D0002109ACCF21E030E0208331830C947C0DCA
:1020E00060D0402E0FEF501611F4A0D0528C02E0B9
:1020F000509EF001EF5FF64F08950C94E20B0E94A2
:10210000D714802F490100E0F90100830183028385
:102110000383048305830683078343D08F3F31F411
:10212000E9EFF8E02081F181E22F828D12E0819FBA
:1021300087D0122F132B21F050E02130350711F4F6
:102140007CD02CC0F901128510FD03C0C7DF05E467
:1021500025C0442455246624772486819781A08550
:10216000B185A480B580BADF06C001E0400E00E072
:10217000501E601E701EF50101915F010023A9F33E
:10218000F401408251826282738284199509A60902
:10219000B70984839583A683B78300E0ECE00C94B1
:1021A000E8140C94790D40D0902FFBDF202F3ED007
:1021B000028D9F3F11F4902F02C0901711F481E01F
:1021C00001C080E002E0909F94DF00811181302FF8
:1021D000312B21F4022F82DF08E423C050E00130CC
:1021E000150719F4022F29D01CC0F801448DA6E26E
:1021F000B9E0A40FB51F358D30954C9143234C9316
:1022000031F4368D30952FDF408143234083F80130
:10221000008D0860008F022F61DF882309F06DDFD9
:1022200000E0E4E00C94F0140C94DF14E9EFF8E023
:102230000081F181E02F0895042D50DF03E408951B
:1022400058DF208131810895F8012370233061F433
:1022500006C0415050406040704000E00193042FA0
:10226000052B062B072BA9F7089533D0C801009141
:1022700021090023F1F4082F012BD9F021D01AD025
:10228000248D30E0A6E2B9E0A20FB31F13D0158D64
:1022900010952C9121232C9341F40CD0168D109580
:1022A000E5E2F9E020812123208304D0868B978BFF
:1022B00009D00CC0E9EFF8E02081F181E22F089508
:1022C0000C94790D0E947C0D0C94E20BE4E00C94CC
:1022D000F0140C94DF140CE0009370000FEF0093E7
:1022E000730004E025C0BD01422F2091740020FD41
:1022F000FCCFEEEBF4E04287D8012C9120832C91A7
:1023000020FD0EC021E030E009C0D801A20FB31FAC
:102310005C91DF01A20FB31F5C9323952417A8F3F0
:1023200000E0048708EF038702D0DB01089505EA87
:1023300000937400089540E03091740030FDFCCFAC
:102340003091CA04332359F40CC050E0FA01E2542E
:10235000FB4F3081F801E40FF51F3083439542179E
:10236000A0F30091CA0408950E94DF14EEEBF4E09C
:10237000058510E0DF01A00FB11F8285009171007B
:10238000085079F0085069F0085061F0005151F0A0
:10239000005161F10850C9F0005189F00850F9F07E
:1023A00027C0158705850817E8F4DF01A00FB11FC6
:1023B0000C91009373000585039505870EC000916D
:1023C00073000C93058503950587058590E00197BB
:1023D0000817190714F405EC0FC005E80DC00091AB
:1023E00073000C9301E0048704E906C005EA04C009
:1023F00000917100038704E09BDFE4E00C94F0148B
:1024000000008895FECF0FE30DBF01E00EBFC0E2D4
:10241000D1E00E94F914002311F00E940B150E94D4
:102420005E000E9400120C9400124A9512F0000FF8
:10243000E1F708950024E8E0EA9532F0001F001C5F
:102440000416D0F3041AF8CF001F402D009508950C
:10245000149F102D059F100D049F002D110D089540
:10246000000F111F4A95E2F70895369527951795A5
:1024700007954A95D2F70895002411241001E0E24F
:10248000EA9592F0001F111F221F331F001C111C20
:10249000221C331C041615062606370688F3041A78
:1024A000150A260A370AECCF001F111F221F331FFF
:1024B000A001B101009510952095309508953095B3
:1024C0002095109501951F4F2F4F3F4F0895FF27DF
:1024D000112477FB660F771F089409F4771F67951F
:1024E00017F8EE27002437FB220F331F089409F456
:1024F000331F279507F8089527FD0EC0EE0F001F24
:10250000111F221F3A953230B8F7332319F427FDF3
:1025100031E002C027FF30E0E03821F400FF0894EA
:102520000EF488940F4F1F4F2F4F3F4F323038F427
:10253000332319F427FD31E002C027FF30E03F3F8D
:1025400029F0220F000C379527950895ACC0032E73
:10255000002012F40E945F12E02F012F122F232F70
:102560003EE9D1CF0024F8CFBCDF432F4F5748F0CE
:102570004F3148F007FC91C03FE72FEF1FEF0FEFFF
:10258000089533278CC0322F212F102F0E2F4F513B
:1025900041950E94391207FE08950C945F12F901CB
:1025A000EE0FFF1F37FBFF3F31F0EF2BE12BE02B4E
:1025B0008894B8940895E02BE12B21F00894989426
:1025C000B89408959894889438940895FB01EE0F78
:1025D000FF1F77FBFF3F31F0EF2BE52BE42B8894B7
:1025E000B8940895E42BE52B69F3E8CFEFDF68F0AA
:1025F00021F43723262F8A010895372FFBCFE6DFFA
:1026000020F00BF008957327EAF751C0C8DFE8F314
:10261000B3F361F3DBDFC8F383F3A1F358DF4017B3
:1026200051076207730731F4011411F10024E89493
:1026300088942BC078F0332E372F732D322E262F0F
:10264000632D312E152F532D302E042F432D302C7A
:10265000012C132C371739F0669557954795F79548
:10266000E0407395F7CFE7FBEE0FE0E010246AF04F
:10267000EF0F041F151F261F60F427951795079568
:10268000E79508F4689433953ECFEF0B040B150BD8
:10269000260B39CFE0E87E27B9CF302D30782227BE
:1026A0001127002708953FE7302920E8F9CF3FEFB1
:1026B0002FEFF6CF8BDFD8F3D1F37078372708955B
:1026C00085DFA8F3A3F3F9CF3078372793CF67DFFF
:1026D00070F383F3A9F37ADF50F3B3F3A9F3F7DED2
:1026E0000124E8943F57E040370FEF1F12F0D9F66E
:1026F00003C03A3E90F26894E0E00A92AA933A93BB
:10270000AA27332422243327049FF001059FF00DCC
:10271000712D731F149FF00D711D221C069F700DEB
:10272000211C331C159F700D211C331E249F700D1E
:10273000211C331E169F200C311CAA1F259F200C24
:10274000311CA31F269F300CA11D39915EF43395D7
:10275000A695379427947795F795E795339531307B
:10276000BCF316C0AA2322F0332351F4339510C0D2
:10277000339571F4A991099096CFA7FD09C03A95B8
:10278000EE0FFF1F771F221C331CAA1F3230A8F741
:10279000E894FE2B09F068942A2F8101E72FA99174
:1027A0000990BACE13DF10F00BF087CF80CF0EDF89
:1027B000E9F3E0F3032E072670CF032E072673CF2D
:1027C000EEDEA0F37BF399F301DF80F39BF3A9F333
:1027D0007EDE012427FD06C0000F111F221F31508D
:1027E000E040F8CF67FD06C0440F551F661F7150CB
:1027F000F040F8CFE894371BEF0B3158EF4F2AF039
:10280000EE23E9F63F3FD9F203C03A3EA8F26894BE
:10281000E0E0F0E01124139440175107620738F00C
:10282000315008F46894000F111F221FEE1F041B83
:10283000150B260BEF0B000F111F221FEE1F0A9224
:1028400079E17A95AAF0041715072607EF0730F00B
:10285000041B150B260BEF0B089401C08894111C68
:10286000221C331C001C000F111F221FEE1FE9CF7A
:10287000F0F9E894E22BE12BE02B09F06894069440
:10288000379427941794E79508F468947395B9F3EF
:102890000990332311F0F0FF09C036942794179460
:1028A000E79508F4689433953130BCF3012D122D6F
:1028B000232D32CE8BDEA0F072DE90F029F0E32FD4
:1028C000E7273AF47317089581DE51F04EF008942B
:1028D0000895041715072607370719F016F4B8F7F7
:1028E0008894089573DEE0F35ADED0F3E7DFC0F397
:1028F000089408957791679157914791179011FA2D
:10290000279037900895F9DF041B10E003C0F4DF2F
:10291000041B150B20E030E005C0ECDF041B150B99
:10292000260B370BB8F010FC17C047910790E00F4B
:10293000F11F0417100540E02407340758F436F45B
:1029400006910024F101E01BF0090994E00FF11F4A
:1029500027903790F101099411F4D6F7F1CF319611
:102960000EF0319650E060E070E047914B3F48F048
:1029700089F34F3F29F04E3F11F0779167915791BE
:102980004791041B150B260B370B39F318F3E7CFD0
:10299000AF93BF93D80101900D9241505040D9F7A9
:1029A000BF91AF910895FA92EA92DA92CA92BA92DE
:1029B000AA929A928A927A926A925A924A92BA9376
:1029C000AA939A938A930895FF84EE84DD84CC843D
:1029D000BB84AA84998488847F806E805D804C80CB
:1029E000BB81AA8199818881F0E0EC0FFD1FEF0186
:1029F000089501E0089520E008D0E9F708953BBF6D
:102A000027913BB702D0D9F708952D93015010407C
:102A1000202F212B089508E7402E0AE2502E00E0D7
:102A2000602EF201362D6BBE07911691F201EE5F1A
:102A3000FF4F3F4F3BBFA791B691F201362DEC5FA0
:102A4000FF4F3F4F3BBF479157916691242F252B56
:102A5000262B21F0FA01362FD2DF01C0CCDF07E0B0
:102A6000400E00E0501E601E06E81AE220E040160C
:102A700051066206B0F208958C034001862A006F69
:102A800009CC040000005374617274205461736BAC
:102A9000005461736B2031005461736B2032005419
:102AA00061736B2033003A0037003400310022009C
:102AB000610064003B0038003500320023006200F2
:102AC000650039003600330030002100200063002B
:102AD000DC05DC05DC05000000000000000007004C
:102AE0003C3C3C0000000000000000000000000032
:102AF00000000000000000000000000000000000D6
:102B000000000000000000000000000000000000C5
:102B100000000000000000000000000000000000B5
:102B200000000000000000000000000000000000A5
:102B30000000000000000000000000000000010094
:102B40000000010000003C3C3C000000000000FFD1
:102B5000F0E1D2C3B4A5968778695A4B3C2D0000AA
:102B60000000000000000000000000000000000065
:102B70000000000000000000000000000000000055
:102B800000000050780000000000020C11030D123C
:102B9000040E13050F140610150711160812170955
:102BA00013180A14190B151A0C161B0D171C0E18E6
:102BB0001D0F191E101A1F111B200000000000001D
:102BC0000000000000000000000000000000000005
:102BD00000000000000000000000000000000000F5
:102BE00000000000000000000000000000000000E5
:102BF00000000000000000000000000000000000D5
:102C000000000000000000000000000000000000C4
:102C10000000000000000000000000003C373C30D5
:102C20002B36241F301B162A120D1E090412060112
:102C3000060000000000000000000000000000008E
:102C40000000000000000000000000000000000084
:102C50000000000000000000000000000000000074
:102C6000000000000000000000003C373C36313618
:102C7000302B302A252A1E191E120D1206010600BD
:102C80000000AA49FF00BB000200000075432F4F5F
:102C9000532D49492049646C650075432F4F532DCE
:102CA00049492053746174000000010002000100D2
:102CB0000300010002000100040001000200010005
:102CC00003000100020001000500010002000100F4
:102CD00003000100020001000400010002000100E5
:102CE00003000100020001000600010002000100D3
:102CF00003000100020001000400010002000100C5
:102D000003000100020001000500010002000100B3
:102D100003000100020001000400010002000100A4
:102D20000300010002000100070001000200010091
:102D30000300010002000100040001000200010084
:102D40000300010002000100050001000200010073
:102D50000300010002000100040001000200010064
:102D60000300010002000100060001000200010052
:102D70000300010002000100040001000200010044
:102D80000300010002000100050001000200010033
:102D90000300010002000100040001000200010024
:102DA00003000100020001000100785634120A00FD
:102DB000100001001800F0000000000000000000FA
:102DC000050010000E0000000000050010000000CB
:102DD00000000000020000000400000002000100EA
:102DE0000100010001000100E000010009001000E5
:102DF0000100E000010001000F004200640001003A
:102E00001E014A050000000000000000000000F85C
:022E10000000C0
:0400000300000000F9
:00000001FF
